{
  "_format": "hh-sol-artifact-1",
  "contractName": "GRVTBaseToken",
  "sourceName": "contracts/proxy-bridging/GRVTBaseToken.sol",
  "abi": [
    {
      "inputs": [],
      "stateMutability": "nonpayable",
      "type": "constructor"
    },
    {
      "anonymous": false,
      "inputs": [
        {
          "indexed": true,
          "internalType": "address",
          "name": "owner",
          "type": "address"
        },
        {
          "indexed": true,
          "internalType": "address",
          "name": "spender",
          "type": "address"
        },
        {
          "indexed": false,
          "internalType": "uint256",
          "name": "value",
          "type": "uint256"
        }
      ],
      "name": "Approval",
      "type": "event"
    },
    {
      "anonymous": false,
      "inputs": [
        {
          "indexed": false,
          "internalType": "uint8",
          "name": "version",
          "type": "uint8"
        }
      ],
      "name": "Initialized",
      "type": "event"
    },
    {
      "anonymous": false,
      "inputs": [
        {
          "indexed": true,
          "internalType": "bytes32",
          "name": "role",
          "type": "bytes32"
        },
        {
          "indexed": true,
          "internalType": "bytes32",
          "name": "previousAdminRole",
          "type": "bytes32"
        },
        {
          "indexed": true,
          "internalType": "bytes32",
          "name": "newAdminRole",
          "type": "bytes32"
        }
      ],
      "name": "RoleAdminChanged",
      "type": "event"
    },
    {
      "anonymous": false,
      "inputs": [
        {
          "indexed": true,
          "internalType": "bytes32",
          "name": "role",
          "type": "bytes32"
        },
        {
          "indexed": true,
          "internalType": "address",
          "name": "account",
          "type": "address"
        },
        {
          "indexed": true,
          "internalType": "address",
          "name": "sender",
          "type": "address"
        }
      ],
      "name": "RoleGranted",
      "type": "event"
    },
    {
      "anonymous": false,
      "inputs": [
        {
          "indexed": true,
          "internalType": "bytes32",
          "name": "role",
          "type": "bytes32"
        },
        {
          "indexed": true,
          "internalType": "address",
          "name": "account",
          "type": "address"
        },
        {
          "indexed": true,
          "internalType": "address",
          "name": "sender",
          "type": "address"
        }
      ],
      "name": "RoleRevoked",
      "type": "event"
    },
    {
      "anonymous": false,
      "inputs": [
        {
          "indexed": true,
          "internalType": "address",
          "name": "from",
          "type": "address"
        },
        {
          "indexed": true,
          "internalType": "address",
          "name": "to",
          "type": "address"
        },
        {
          "indexed": false,
          "internalType": "uint256",
          "name": "value",
          "type": "uint256"
        }
      ],
      "name": "Transfer",
      "type": "event"
    },
    {
      "inputs": [],
      "name": "DEFAULT_ADMIN_ROLE",
      "outputs": [
        {
          "internalType": "bytes32",
          "name": "",
          "type": "bytes32"
        }
      ],
      "stateMutability": "view",
      "type": "function"
    },
    {
      "inputs": [],
      "name": "MINTER_ROLE",
      "outputs": [
        {
          "internalType": "bytes32",
          "name": "",
          "type": "bytes32"
        }
      ],
      "stateMutability": "view",
      "type": "function"
    },
    {
      "inputs": [
        {
          "internalType": "address",
          "name": "owner",
          "type": "address"
        },
        {
          "internalType": "address",
          "name": "spender",
          "type": "address"
        }
      ],
      "name": "allowance",
      "outputs": [
        {
          "internalType": "uint256",
          "name": "",
          "type": "uint256"
        }
      ],
      "stateMutability": "view",
      "type": "function"
    },
    {
      "inputs": [
        {
          "internalType": "address",
          "name": "spender",
          "type": "address"
        },
        {
          "internalType": "uint256",
          "name": "amount",
          "type": "uint256"
        }
      ],
      "name": "approve",
      "outputs": [
        {
          "internalType": "bool",
          "name": "",
          "type": "bool"
        }
      ],
      "stateMutability": "nonpayable",
      "type": "function"
    },
    {
      "inputs": [
        {
          "internalType": "address",
          "name": "account",
          "type": "address"
        }
      ],
      "name": "balanceOf",
      "outputs": [
        {
          "internalType": "uint256",
          "name": "",
          "type": "uint256"
        }
      ],
      "stateMutability": "view",
      "type": "function"
    },
    {
      "inputs": [
        {
          "internalType": "uint256",
          "name": "amount",
          "type": "uint256"
        }
      ],
      "name": "burn",
      "outputs": [],
      "stateMutability": "nonpayable",
      "type": "function"
    },
    {
      "inputs": [
        {
          "internalType": "address",
          "name": "account",
          "type": "address"
        },
        {
          "internalType": "uint256",
          "name": "amount",
          "type": "uint256"
        }
      ],
      "name": "burnFrom",
      "outputs": [],
      "stateMutability": "nonpayable",
      "type": "function"
    },
    {
      "inputs": [],
      "name": "decimals",
      "outputs": [
        {
          "internalType": "uint8",
          "name": "",
          "type": "uint8"
        }
      ],
      "stateMutability": "view",
      "type": "function"
    },
    {
      "inputs": [
        {
          "internalType": "address",
          "name": "spender",
          "type": "address"
        },
        {
          "internalType": "uint256",
          "name": "subtractedValue",
          "type": "uint256"
        }
      ],
      "name": "decreaseAllowance",
      "outputs": [
        {
          "internalType": "bool",
          "name": "",
          "type": "bool"
        }
      ],
      "stateMutability": "nonpayable",
      "type": "function"
    },
    {
      "inputs": [
        {
          "internalType": "bytes32",
          "name": "role",
          "type": "bytes32"
        }
      ],
      "name": "getRoleAdmin",
      "outputs": [
        {
          "internalType": "bytes32",
          "name": "",
          "type": "bytes32"
        }
      ],
      "stateMutability": "view",
      "type": "function"
    },
    {
      "inputs": [
        {
          "internalType": "bytes32",
          "name": "role",
          "type": "bytes32"
        },
        {
          "internalType": "address",
          "name": "account",
          "type": "address"
        }
      ],
      "name": "grantRole",
      "outputs": [],
      "stateMutability": "nonpayable",
      "type": "function"
    },
    {
      "inputs": [
        {
          "internalType": "bytes32",
          "name": "role",
          "type": "bytes32"
        },
        {
          "internalType": "address",
          "name": "account",
          "type": "address"
        }
      ],
      "name": "hasRole",
      "outputs": [
        {
          "internalType": "bool",
          "name": "",
          "type": "bool"
        }
      ],
      "stateMutability": "view",
      "type": "function"
    },
    {
      "inputs": [
        {
          "internalType": "address",
          "name": "spender",
          "type": "address"
        },
        {
          "internalType": "uint256",
          "name": "addedValue",
          "type": "uint256"
        }
      ],
      "name": "increaseAllowance",
      "outputs": [
        {
          "internalType": "bool",
          "name": "",
          "type": "bool"
        }
      ],
      "stateMutability": "nonpayable",
      "type": "function"
    },
    {
      "inputs": [
        {
          "internalType": "address",
          "name": "defaultAdmin",
          "type": "address"
        }
      ],
      "name": "initialize",
      "outputs": [],
      "stateMutability": "nonpayable",
      "type": "function"
    },
    {
      "inputs": [
        {
          "internalType": "address",
          "name": "to",
          "type": "address"
        },
        {
          "internalType": "uint256",
          "name": "amount",
          "type": "uint256"
        }
      ],
      "name": "mint",
      "outputs": [],
      "stateMutability": "nonpayable",
      "type": "function"
    },
    {
      "inputs": [],
      "name": "name",
      "outputs": [
        {
          "internalType": "string",
          "name": "",
          "type": "string"
        }
      ],
      "stateMutability": "view",
      "type": "function"
    },
    {
      "inputs": [
        {
          "internalType": "bytes32",
          "name": "role",
          "type": "bytes32"
        },
        {
          "internalType": "address",
          "name": "account",
          "type": "address"
        }
      ],
      "name": "renounceRole",
      "outputs": [],
      "stateMutability": "nonpayable",
      "type": "function"
    },
    {
      "inputs": [
        {
          "internalType": "bytes32",
          "name": "role",
          "type": "bytes32"
        },
        {
          "internalType": "address",
          "name": "account",
          "type": "address"
        }
      ],
      "name": "revokeRole",
      "outputs": [],
      "stateMutability": "nonpayable",
      "type": "function"
    },
    {
      "inputs": [
        {
          "internalType": "bytes4",
          "name": "interfaceId",
          "type": "bytes4"
        }
      ],
      "name": "supportsInterface",
      "outputs": [
        {
          "internalType": "bool",
          "name": "",
          "type": "bool"
        }
      ],
      "stateMutability": "view",
      "type": "function"
    },
    {
      "inputs": [],
      "name": "symbol",
      "outputs": [
        {
          "internalType": "string",
          "name": "",
          "type": "string"
        }
      ],
      "stateMutability": "view",
      "type": "function"
    },
    {
      "inputs": [],
      "name": "totalSupply",
      "outputs": [
        {
          "internalType": "uint256",
          "name": "",
          "type": "uint256"
        }
      ],
      "stateMutability": "view",
      "type": "function"
    },
    {
      "inputs": [
        {
          "internalType": "address",
          "name": "to",
          "type": "address"
        },
        {
          "internalType": "uint256",
          "name": "amount",
          "type": "uint256"
        }
      ],
      "name": "transfer",
      "outputs": [
        {
          "internalType": "bool",
          "name": "",
          "type": "bool"
        }
      ],
      "stateMutability": "nonpayable",
      "type": "function"
    },
    {
      "inputs": [
        {
          "internalType": "address",
          "name": "from",
          "type": "address"
        },
        {
          "internalType": "address",
          "name": "to",
          "type": "address"
        },
        {
          "internalType": "uint256",
          "name": "amount",
          "type": "uint256"
        }
      ],
      "name": "transferFrom",
      "outputs": [
        {
          "internalType": "bool",
          "name": "",
          "type": "bool"
        }
      ],
      "stateMutability": "nonpayable",
      "type": "function"
    }
  ],
  "bytecode": "0x60806040523480156200001157600080fd5b50620000226200002860201b60201c565b620001d2565b600060019054906101000a900460ff16156200007b576040517f08c379a0000000000000000000000000000000000000000000000000000000008152600401620000729062000175565b60405180910390fd5b60ff801660008054906101000a900460ff1660ff1614620000ec5760ff6000806101000a81548160ff021916908360ff1602179055507f7f26b83ff96e1f2b6a682f133852f6798a09c465da95921460cefb384740249860ff604051620000e39190620001b5565b60405180910390a15b565b600082825260208201905092915050565b7f496e697469616c697a61626c653a20636f6e747261637420697320696e69746960008201527f616c697a696e6700000000000000000000000000000000000000000000000000602082015250565b60006200015d602783620000ee565b91506200016a82620000ff565b604082019050919050565b6000602082019050818103600083015262000190816200014e565b9050919050565b600060ff82169050919050565b620001af8162000197565b82525050565b6000602082019050620001cc6000830184620001a4565b92915050565b612c5780620001e26000396000f3fe608060405234801561001057600080fd5b506004361061014d5760003560e01c806342966c68116100c3578063a457c2d71161007c578063a457c2d7146103c4578063a9059cbb146103f4578063c4d66de814610424578063d539139314610440578063d547741f1461045e578063dd62ed3e1461047a5761014d565b806342966c68146102f057806370a082311461030c57806379cc67901461033c57806391d148541461035857806395d89b4114610388578063a217fddf146103a65761014d565b8063248a9ca311610115578063248a9ca31461021e5780632f2ff15d1461024e578063313ce5671461026a57806336568abe1461028857806339509351146102a457806340c10f19146102d45761014d565b806301ffc9a71461015257806306fdde0314610182578063095ea7b3146101a057806318160ddd146101d057806323b872dd146101ee575b600080fd5b61016c60048036038101906101679190611b25565b6104aa565b6040516101799190611b6d565b60405180910390f35b61018a610524565b6040516101979190611c18565b60405180910390f35b6101ba60048036038101906101b59190611cce565b6105b6565b6040516101c79190611b6d565b60405180910390f35b6101d86105d9565b6040516101e59190611d1d565b60405180910390f35b61020860048036038101906102039190611d38565b6105e3565b6040516102159190611b6d565b60405180910390f35b61023860048036038101906102339190611dc1565b610612565b6040516102459190611dfd565b60405180910390f35b61026860048036038101906102639190611e18565b610632565b005b610272610653565b60405161027f9190611e74565b60405180910390f35b6102a2600480360381019061029d9190611e18565b61065c565b005b6102be60048036038101906102b99190611cce565b6106df565b6040516102cb9190611b6d565b60405180910390f35b6102ee60048036038101906102e99190611cce565b610716565b005b61030a60048036038101906103059190611e8f565b61074f565b005b61032660048036038101906103219190611ebc565b610763565b6040516103339190611d1d565b60405180910390f35b61035660048036038101906103519190611cce565b6107ac565b005b610372600480360381019061036d9190611e18565b6107cc565b60405161037f9190611b6d565b60405180910390f35b610390610837565b60405161039d9190611c18565b60405180910390f35b6103ae6108c9565b6040516103bb9190611dfd565b60405180910390f35b6103de60048036038101906103d99190611cce565b6108d0565b6040516103eb9190611b6d565b60405180910390f35b61040e60048036038101906104099190611cce565b610947565b60405161041b9190611b6d565b60405180910390f35b61043e60048036038101906104399190611ebc565b61096a565b005b610448610b32565b6040516104559190611dfd565b60405180910390f35b61047860048036038101906104739190611e18565b610b56565b005b610494600480360381019061048f9190611ee9565b610b77565b6040516104a19190611d1d565b60405180910390f35b60007f7965db0b000000000000000000000000000000000000000000000000000000007bffffffffffffffffffffffffffffffffffffffffffffffffffffffff1916827bffffffffffffffffffffffffffffffffffffffffffffffffffffffff1916148061051d575061051c82610bfe565b5b9050919050565b60606036805461053390611f58565b80601f016020809104026020016040519081016040528092919081815260200182805461055f90611f58565b80156105ac5780601f10610581576101008083540402835291602001916105ac565b820191906000526020600020905b81548152906001019060200180831161058f57829003601f168201915b5050505050905090565b6000806105c1610c68565b90506105ce818585610c70565b600191505092915050565b6000603554905090565b6000806105ee610c68565b90506105fb858285610e39565b610606858585610ec5565b60019150509392505050565b600060c96000838152602001908152602001600020600101549050919050565b61063b82610612565b6106448161113e565b61064e8383611152565b505050565b60006012905090565b610664610c68565b73ffffffffffffffffffffffffffffffffffffffff168173ffffffffffffffffffffffffffffffffffffffff16146106d1576040517f08c379a00000000000000000000000000000000000000000000000000000000081526004016106c890611ffb565b60405180910390fd5b6106db8282611233565b5050565b6000806106ea610c68565b905061070b8185856106fc8589610b77565b610706919061204a565b610c70565b600191505092915050565b7f9f2df0fed2c77648de5860a4cc508cd0818c85b8b8a1ab4ceeef8d981c8956a66107408161113e565b61074a8383611315565b505050565b61076061075a610c68565b8261146c565b50565b6000603360008373ffffffffffffffffffffffffffffffffffffffff1673ffffffffffffffffffffffffffffffffffffffff168152602001908152602001600020549050919050565b6107be826107b8610c68565b83610e39565b6107c8828261146c565b5050565b600060c9600084815260200190815260200160002060000160008373ffffffffffffffffffffffffffffffffffffffff1673ffffffffffffffffffffffffffffffffffffffff16815260200190815260200160002060009054906101000a900460ff16905092915050565b60606037805461084690611f58565b80601f016020809104026020016040519081016040528092919081815260200182805461087290611f58565b80156108bf5780601f10610894576101008083540402835291602001916108bf565b820191906000526020600020905b8154815290600101906020018083116108a257829003601f168201915b5050505050905090565b6000801b81565b6000806108db610c68565b905060006108e98286610b77565b90508381101561092e576040517f08c379a0000000000000000000000000000000000000000000000000000000008152600401610925906120f0565b60405180910390fd5b61093b8286868403610c70565b60019250505092915050565b600080610952610c68565b905061095f818585610ec5565b600191505092915050565b60008060019054906101000a900460ff1615905080801561099b5750600160008054906101000a900460ff1660ff16105b806109c857506109aa3061163b565b1580156109c75750600160008054906101000a900460ff1660ff16145b5b610a07576040517f08c379a00000000000000000000000000000000000000000000000000000000081526004016109fe90612182565b60405180910390fd5b60016000806101000a81548160ff021916908360ff1602179055508015610a44576001600060016101000a81548160ff0219169083151502179055505b610ab86040518060400160405280600d81526020017f4752565442617365546f6b656e000000000000000000000000000000000000008152506040518060400160405280600381526020017f474254000000000000000000000000000000000000000000000000000000000081525061165e565b610ac06116bb565b610ac861170c565b610ad56000801b83611152565b8015610b2e5760008060016101000a81548160ff0219169083151502179055507f7f26b83ff96e1f2b6a682f133852f6798a09c465da95921460cefb38474024986001604051610b2591906121e7565b60405180910390a15b5050565b7f9f2df0fed2c77648de5860a4cc508cd0818c85b8b8a1ab4ceeef8d981c8956a681565b610b5f82610612565b610b688161113e565b610b728383611233565b505050565b6000603460008473ffffffffffffffffffffffffffffffffffffffff1673ffffffffffffffffffffffffffffffffffffffff16815260200190815260200160002060008373ffffffffffffffffffffffffffffffffffffffff1673ffffffffffffffffffffffffffffffffffffffff16815260200190815260200160002054905092915050565b60007f01ffc9a7000000000000000000000000000000000000000000000000000000007bffffffffffffffffffffffffffffffffffffffffffffffffffffffff1916827bffffffffffffffffffffffffffffffffffffffffffffffffffffffff1916149050919050565b600033905090565b600073ffffffffffffffffffffffffffffffffffffffff168373ffffffffffffffffffffffffffffffffffffffff1603610cdf576040517f08c379a0000000000000000000000000000000000000000000000000000000008152600401610cd690612274565b60405180910390fd5b600073ffffffffffffffffffffffffffffffffffffffff168273ffffffffffffffffffffffffffffffffffffffff1603610d4e576040517f08c379a0000000000000000000000000000000000000000000000000000000008152600401610d4590612306565b60405180910390fd5b80603460008573ffffffffffffffffffffffffffffffffffffffff1673ffffffffffffffffffffffffffffffffffffffff16815260200190815260200160002060008473ffffffffffffffffffffffffffffffffffffffff1673ffffffffffffffffffffffffffffffffffffffff168152602001908152602001600020819055508173ffffffffffffffffffffffffffffffffffffffff168373ffffffffffffffffffffffffffffffffffffffff167f8c5be1e5ebec7d5bd14f71427d1e84f3dd0314c0f7b2291e5b200ac8c7c3b92583604051610e2c9190611d1d565b60405180910390a3505050565b6000610e458484610b77565b90507fffffffffffffffffffffffffffffffffffffffffffffffffffffffffffffffff8114610ebf5781811015610eb1576040517f08c379a0000000000000000000000000000000000000000000000000000000008152600401610ea890612372565b60405180910390fd5b610ebe8484848403610c70565b5b50505050565b600073ffffffffffffffffffffffffffffffffffffffff168373ffffffffffffffffffffffffffffffffffffffff1603610f34576040517f08c379a0000000000000000000000000000000000000000000000000000000008152600401610f2b90612404565b60405180910390fd5b600073ffffffffffffffffffffffffffffffffffffffff168273ffffffffffffffffffffffffffffffffffffffff1603610fa3576040517f08c379a0000000000000000000000000000000000000000000000000000000008152600401610f9a90612496565b60405180910390fd5b610fae83838361175d565b6000603360008573ffffffffffffffffffffffffffffffffffffffff1673ffffffffffffffffffffffffffffffffffffffff16815260200190815260200160002054905081811015611035576040517f08c379a000000000000000000000000000000000000000000000000000000000815260040161102c90612528565b60405180910390fd5b818103603360008673ffffffffffffffffffffffffffffffffffffffff1673ffffffffffffffffffffffffffffffffffffffff1681526020019081526020016000208190555081603360008573ffffffffffffffffffffffffffffffffffffffff1673ffffffffffffffffffffffffffffffffffffffff168152602001908152602001600020600082825401925050819055508273ffffffffffffffffffffffffffffffffffffffff168473ffffffffffffffffffffffffffffffffffffffff167fddf252ad1be2c89b69c2b068fc378daa952ba7f163c4a11628f55a4df523b3ef846040516111259190611d1d565b60405180910390a3611138848484611762565b50505050565b61114f8161114a610c68565b611767565b50565b61115c82826107cc565b61122f57600160c9600084815260200190815260200160002060000160008373ffffffffffffffffffffffffffffffffffffffff1673ffffffffffffffffffffffffffffffffffffffff16815260200190815260200160002060006101000a81548160ff0219169083151502179055506111d4610c68565b73ffffffffffffffffffffffffffffffffffffffff168173ffffffffffffffffffffffffffffffffffffffff16837f2f8788117e7eff1d82e926ec794901d17c78024a50270940304540a733656f0d60405160405180910390a45b5050565b61123d82826107cc565b1561131157600060c9600084815260200190815260200160002060000160008373ffffffffffffffffffffffffffffffffffffffff1673ffffffffffffffffffffffffffffffffffffffff16815260200190815260200160002060006101000a81548160ff0219169083151502179055506112b6610c68565b73ffffffffffffffffffffffffffffffffffffffff168173ffffffffffffffffffffffffffffffffffffffff16837ff6391f5c32d9c69d2a47ea670b442974b53935d1edc7fd64eb21e047a839171b60405160405180910390a45b5050565b600073ffffffffffffffffffffffffffffffffffffffff168273ffffffffffffffffffffffffffffffffffffffff1603611384576040517f08c379a000000000000000000000000000000000000000000000000000000000815260040161137b90612594565b60405180910390fd5b6113906000838361175d565b80603560008282546113a2919061204a565b9250508190555080603360008473ffffffffffffffffffffffffffffffffffffffff1673ffffffffffffffffffffffffffffffffffffffff168152602001908152602001600020600082825401925050819055508173ffffffffffffffffffffffffffffffffffffffff16600073ffffffffffffffffffffffffffffffffffffffff167fddf252ad1be2c89b69c2b068fc378daa952ba7f163c4a11628f55a4df523b3ef836040516114549190611d1d565b60405180910390a361146860008383611762565b5050565b600073ffffffffffffffffffffffffffffffffffffffff168273ffffffffffffffffffffffffffffffffffffffff16036114db576040517f08c379a00000000000000000000000000000000000000000000000000000000081526004016114d290612626565b60405180910390fd5b6114e78260008361175d565b6000603360008473ffffffffffffffffffffffffffffffffffffffff1673ffffffffffffffffffffffffffffffffffffffff1681526020019081526020016000205490508181101561156e576040517f08c379a0000000000000000000000000000000000000000000000000000000008152600401611565906126b8565b60405180910390fd5b818103603360008573ffffffffffffffffffffffffffffffffffffffff1673ffffffffffffffffffffffffffffffffffffffff1681526020019081526020016000208190555081603560008282540392505081905550600073ffffffffffffffffffffffffffffffffffffffff168373ffffffffffffffffffffffffffffffffffffffff167fddf252ad1be2c89b69c2b068fc378daa952ba7f163c4a11628f55a4df523b3ef846040516116229190611d1d565b60405180910390a361163683600084611762565b505050565b6000808273ffffffffffffffffffffffffffffffffffffffff163b119050919050565b600060019054906101000a900460ff166116ad576040517f08c379a00000000000000000000000000000000000000000000000000000000081526004016116a49061274a565b60405180910390fd5b6116b782826117ec565b5050565b600060019054906101000a900460ff1661170a576040517f08c379a00000000000000000000000000000000000000000000000000000000081526004016117019061274a565b60405180910390fd5b565b600060019054906101000a900460ff1661175b576040517f08c379a00000000000000000000000000000000000000000000000000000000081526004016117529061274a565b60405180910390fd5b565b505050565b505050565b61177182826107cc565b6117e85761177e8161185f565b61178c8360001c602061188c565b60405160200161179d92919061283e565b6040516020818303038152906040526040517f08c379a00000000000000000000000000000000000000000000000000000000081526004016117df9190611c18565b60405180910390fd5b5050565b600060019054906101000a900460ff1661183b576040517f08c379a00000000000000000000000000000000000000000000000000000000081526004016118329061274a565b60405180910390fd5b816036908161184a9190612a49565b50806037908161185a9190612a49565b505050565b60606118858273ffffffffffffffffffffffffffffffffffffffff16601460ff1661188c565b9050919050565b60606000600283600261189f9190612b1b565b6118a9919061204a565b67ffffffffffffffff8111156118c2576118c1612878565b5b6040519080825280601f01601f1916602001820160405280156118f45781602001600182028036833780820191505090505b5090507f30000000000000000000000000000000000000000000000000000000000000008160008151811061192c5761192b612b5d565b5b60200101907effffffffffffffffffffffffffffffffffffffffffffffffffffffffffffff1916908160001a9053507f7800000000000000000000000000000000000000000000000000000000000000816001815181106119905761198f612b5d565b5b60200101907effffffffffffffffffffffffffffffffffffffffffffffffffffffffffffff1916908160001a905350600060018460026119d09190612b1b565b6119da919061204a565b90505b6001811115611a7a577f3031323334353637383961626364656600000000000000000000000000000000600f861660108110611a1c57611a1b612b5d565b5b1a60f81b828281518110611a3357611a32612b5d565b5b60200101907effffffffffffffffffffffffffffffffffffffffffffffffffffffffffffff1916908160001a905350600485901c945080611a7390612b8c565b90506119dd565b5060008414611abe576040517f08c379a0000000000000000000000000000000000000000000000000000000008152600401611ab590612c01565b60405180910390fd5b8091505092915050565b600080fd5b60007fffffffff0000000000000000000000000000000000000000000000000000000082169050919050565b611b0281611acd565b8114611b0d57600080fd5b50565b600081359050611b1f81611af9565b92915050565b600060208284031215611b3b57611b3a611ac8565b5b6000611b4984828501611b10565b91505092915050565b60008115159050919050565b611b6781611b52565b82525050565b6000602082019050611b826000830184611b5e565b92915050565b600081519050919050565b600082825260208201905092915050565b60005b83811015611bc2578082015181840152602081019050611ba7565b60008484015250505050565b6000601f19601f8301169050919050565b6000611bea82611b88565b611bf48185611b93565b9350611c04818560208601611ba4565b611c0d81611bce565b840191505092915050565b60006020820190508181036000830152611c328184611bdf565b905092915050565b600073ffffffffffffffffffffffffffffffffffffffff82169050919050565b6000611c6582611c3a565b9050919050565b611c7581611c5a565b8114611c8057600080fd5b50565b600081359050611c9281611c6c565b92915050565b6000819050919050565b611cab81611c98565b8114611cb657600080fd5b50565b600081359050611cc881611ca2565b92915050565b60008060408385031215611ce557611ce4611ac8565b5b6000611cf385828601611c83565b9250506020611d0485828601611cb9565b9150509250929050565b611d1781611c98565b82525050565b6000602082019050611d326000830184611d0e565b92915050565b600080600060608486031215611d5157611d50611ac8565b5b6000611d5f86828701611c83565b9350506020611d7086828701611c83565b9250506040611d8186828701611cb9565b9150509250925092565b6000819050919050565b611d9e81611d8b565b8114611da957600080fd5b50565b600081359050611dbb81611d95565b92915050565b600060208284031215611dd757611dd6611ac8565b5b6000611de584828501611dac565b91505092915050565b611df781611d8b565b82525050565b6000602082019050611e126000830184611dee565b92915050565b60008060408385031215611e2f57611e2e611ac8565b5b6000611e3d85828601611dac565b9250506020611e4e85828601611c83565b9150509250929050565b600060ff82169050919050565b611e6e81611e58565b82525050565b6000602082019050611e896000830184611e65565b92915050565b600060208284031215611ea557611ea4611ac8565b5b6000611eb384828501611cb9565b91505092915050565b600060208284031215611ed257611ed1611ac8565b5b6000611ee084828501611c83565b91505092915050565b60008060408385031215611f0057611eff611ac8565b5b6000611f0e85828601611c83565b9250506020611f1f85828601611c83565b9150509250929050565b7f4e487b7100000000000000000000000000000000000000000000000000000000600052602260045260246000fd5b60006002820490506001821680611f7057607f821691505b602082108103611f8357611f82611f29565b5b50919050565b7f416363657373436f6e74726f6c3a2063616e206f6e6c792072656e6f756e636560008201527f20726f6c657320666f722073656c660000000000000000000000000000000000602082015250565b6000611fe5602f83611b93565b9150611ff082611f89565b604082019050919050565b6000602082019050818103600083015261201481611fd8565b9050919050565b7f4e487b7100000000000000000000000000000000000000000000000000000000600052601160045260246000fd5b600061205582611c98565b915061206083611c98565b92508282019050808211156120785761207761201b565b5b92915050565b7f45524332303a2064656372656173656420616c6c6f77616e63652062656c6f7760008201527f207a65726f000000000000000000000000000000000000000000000000000000602082015250565b60006120da602583611b93565b91506120e58261207e565b604082019050919050565b60006020820190508181036000830152612109816120cd565b9050919050565b7f496e697469616c697a61626c653a20636f6e747261637420697320616c72656160008201527f647920696e697469616c697a6564000000000000000000000000000000000000602082015250565b600061216c602e83611b93565b915061217782612110565b604082019050919050565b6000602082019050818103600083015261219b8161215f565b9050919050565b6000819050919050565b6000819050919050565b60006121d16121cc6121c7846121a2565b6121ac565b611e58565b9050919050565b6121e1816121b6565b82525050565b60006020820190506121fc60008301846121d8565b92915050565b7f45524332303a20617070726f76652066726f6d20746865207a65726f2061646460008201527f7265737300000000000000000000000000000000000000000000000000000000602082015250565b600061225e602483611b93565b915061226982612202565b604082019050919050565b6000602082019050818103600083015261228d81612251565b9050919050565b7f45524332303a20617070726f766520746f20746865207a65726f20616464726560008201527f7373000000000000000000000000000000000000000000000000000000000000602082015250565b60006122f0602283611b93565b91506122fb82612294565b604082019050919050565b6000602082019050818103600083015261231f816122e3565b9050919050565b7f45524332303a20696e73756666696369656e7420616c6c6f77616e6365000000600082015250565b600061235c601d83611b93565b915061236782612326565b602082019050919050565b6000602082019050818103600083015261238b8161234f565b9050919050565b7f45524332303a207472616e736665722066726f6d20746865207a65726f20616460008201527f6472657373000000000000000000000000000000000000000000000000000000602082015250565b60006123ee602583611b93565b91506123f982612392565b604082019050919050565b6000602082019050818103600083015261241d816123e1565b9050919050565b7f45524332303a207472616e7366657220746f20746865207a65726f206164647260008201527f6573730000000000000000000000000000000000000000000000000000000000602082015250565b6000612480602383611b93565b915061248b82612424565b604082019050919050565b600060208201905081810360008301526124af81612473565b9050919050565b7f45524332303a207472616e7366657220616d6f756e742065786365656473206260008201527f616c616e63650000000000000000000000000000000000000000000000000000602082015250565b6000612512602683611b93565b915061251d826124b6565b604082019050919050565b6000602082019050818103600083015261254181612505565b9050919050565b7f45524332303a206d696e7420746f20746865207a65726f206164647265737300600082015250565b600061257e601f83611b93565b915061258982612548565b602082019050919050565b600060208201905081810360008301526125ad81612571565b9050919050565b7f45524332303a206275726e2066726f6d20746865207a65726f2061646472657360008201527f7300000000000000000000000000000000000000000000000000000000000000602082015250565b6000612610602183611b93565b915061261b826125b4565b604082019050919050565b6000602082019050818103600083015261263f81612603565b9050919050565b7f45524332303a206275726e20616d6f756e7420657863656564732062616c616e60008201527f6365000000000000000000000000000000000000000000000000000000000000602082015250565b60006126a2602283611b93565b91506126ad82612646565b604082019050919050565b600060208201905081810360008301526126d181612695565b9050919050565b7f496e697469616c697a61626c653a20636f6e7472616374206973206e6f74206960008201527f6e697469616c697a696e67000000000000000000000000000000000000000000602082015250565b6000612734602b83611b93565b915061273f826126d8565b604082019050919050565b6000602082019050818103600083015261276381612727565b9050919050565b600081905092915050565b7f416363657373436f6e74726f6c3a206163636f756e7420000000000000000000600082015250565b60006127ab60178361276a565b91506127b682612775565b601782019050919050565b60006127cc82611b88565b6127d6818561276a565b93506127e6818560208601611ba4565b80840191505092915050565b7f206973206d697373696e6720726f6c6520000000000000000000000000000000600082015250565b600061282860118361276a565b9150612833826127f2565b601182019050919050565b60006128498261279e565b915061285582856127c1565b91506128608261281b565b915061286c82846127c1565b91508190509392505050565b7f4e487b7100000000000000000000000000000000000000000000000000000000600052604160045260246000fd5b60008190508160005260206000209050919050565b60006020601f8301049050919050565b600082821b905092915050565b6000600883026129097fffffffffffffffffffffffffffffffffffffffffffffffffffffffffffffffff826128cc565b61291386836128cc565b95508019841693508086168417925050509392505050565b600061294661294161293c84611c98565b6121ac565b611c98565b9050919050565b6000819050919050565b6129608361292b565b61297461296c8261294d565b8484546128d9565b825550505050565b600090565b61298961297c565b612994818484612957565b505050565b5b818110156129b8576129ad600082612981565b60018101905061299a565b5050565b601f8211156129fd576129ce816128a7565b6129d7846128bc565b810160208510156129e6578190505b6129fa6129f2856128bc565b830182612999565b50505b505050565b600082821c905092915050565b6000612a2060001984600802612a02565b1980831691505092915050565b6000612a398383612a0f565b9150826002028217905092915050565b612a5282611b88565b67ffffffffffffffff811115612a6b57612a6a612878565b5b612a758254611f58565b612a808282856129bc565b600060209050601f831160018114612ab35760008415612aa1578287015190505b612aab8582612a2d565b865550612b13565b601f198416612ac1866128a7565b60005b82811015612ae957848901518255600182019150602085019450602081019050612ac4565b86831015612b065784890151612b02601f891682612a0f565b8355505b6001600288020188555050505b505050505050565b6000612b2682611c98565b9150612b3183611c98565b9250828202612b3f81611c98565b91508282048414831517612b5657612b5561201b565b5b5092915050565b7f4e487b7100000000000000000000000000000000000000000000000000000000600052603260045260246000fd5b6000612b9782611c98565b915060008203612baa57612ba961201b565b5b600182039050919050565b7f537472696e67733a20686578206c656e67746820696e73756666696369656e74600082015250565b6000612beb602083611b93565b9150612bf682612bb5565b602082019050919050565b60006020820190508181036000830152612c1a81612bde565b905091905056fea2646970667358221220ac6dd940f1401b5015912fbf30bfd81ee8fee50a1f1d4aa5496ea5556122707664736f6c63430008180033",
  "linkReferences": {},
  "deployedLinkReferences": {}
}