{
  "_format": "hh-sol-artifact-1",
  "contractName": "GRVTBridgeProxy",
  "sourceName": "contracts/proxy-bridging/GRVTBridgeProxy.sol",
  "abi": [
    {
      "anonymous": false,
      "inputs": [
        {
          "indexed": true,
          "internalType": "address",
          "name": "bridgeHub",
          "type": "address"
        }
      ],
      "name": "BridgeHubSet",
      "type": "event"
    },
    {
      "anonymous": false,
      "inputs": [
        {
          "indexed": true,
          "internalType": "bytes32",
          "name": "txDataHash",
          "type": "bytes32"
        },
        {
          "indexed": true,
          "internalType": "bytes32",
          "name": "l2DepositTxHash",
          "type": "bytes32"
        },
        {
          "indexed": true,
          "internalType": "address",
          "name": "from",
          "type": "address"
        },
        {
          "indexed": false,
          "internalType": "address",
          "name": "to",
          "type": "address"
        },
        {
          "indexed": false,
          "internalType": "address",
          "name": "l1Token",
          "type": "address"
        },
        {
          "indexed": false,
          "internalType": "uint256",
          "name": "amount",
          "type": "uint256"
        }
      ],
      "name": "BridgeProxyDepositInitiated",
      "type": "event"
    },
    {
      "anonymous": false,
      "inputs": [
        {
          "indexed": true,
          "internalType": "address",
          "name": "to",
          "type": "address"
        },
        {
          "indexed": true,
          "internalType": "address",
          "name": "l1Token",
          "type": "address"
        },
        {
          "indexed": false,
          "internalType": "uint256",
          "name": "amount",
          "type": "uint256"
        },
        {
          "indexed": false,
          "internalType": "bool",
          "name": "sharedBridgeClaimSucceeded",
          "type": "bool"
        }
      ],
      "name": "ClaimedFailedDepositBridgeProxy",
      "type": "event"
    },
    {
      "anonymous": false,
      "inputs": [
        {
          "indexed": true,
          "internalType": "address",
          "name": "depositApprover",
          "type": "address"
        }
      ],
      "name": "DepositApproverSet",
      "type": "event"
    },
    {
      "anonymous": false,
      "inputs": [
        {
          "indexed": false,
          "internalType": "uint8",
          "name": "version",
          "type": "uint8"
        }
      ],
      "name": "Initialized",
      "type": "event"
    },
    {
      "anonymous": false,
      "inputs": [
        {
          "indexed": false,
          "internalType": "uint256",
          "name": "chainID",
          "type": "uint256"
        },
        {
          "indexed": false,
          "internalType": "address",
          "name": "bridgeHub",
          "type": "address"
        },
        {
          "indexed": false,
          "internalType": "address",
          "name": "owner",
          "type": "address"
        },
        {
          "indexed": false,
          "internalType": "address",
          "name": "depositApprover",
          "type": "address"
        },
        {
          "indexed": false,
          "internalType": "address",
          "name": "baseToken",
          "type": "address"
        }
      ],
      "name": "Initialized",
      "type": "event"
    },
    {
      "anonymous": false,
      "inputs": [
        {
          "indexed": true,
          "internalType": "address",
          "name": "previousOwner",
          "type": "address"
        },
        {
          "indexed": true,
          "internalType": "address",
          "name": "newOwner",
          "type": "address"
        }
      ],
      "name": "OwnershipTransferred",
      "type": "event"
    },
    {
      "anonymous": false,
      "inputs": [
        {
          "indexed": false,
          "internalType": "address",
          "name": "token",
          "type": "address"
        }
      ],
      "name": "TokenAllowed",
      "type": "event"
    },
    {
      "anonymous": false,
      "inputs": [
        {
          "indexed": false,
          "internalType": "address",
          "name": "token",
          "type": "address"
        }
      ],
      "name": "TokenDisallowed",
      "type": "event"
    },
    {
      "inputs": [],
      "name": "L2_GAS_LIMIT_DEPOSIT",
      "outputs": [
        {
          "internalType": "uint256",
          "name": "",
          "type": "uint256"
        }
      ],
      "stateMutability": "view",
      "type": "function"
    },
    {
      "inputs": [],
      "name": "L2_GAS_LIMIT_MINT_BASE_TOKEN",
      "outputs": [
        {
          "internalType": "uint256",
          "name": "",
          "type": "uint256"
        }
      ],
      "stateMutability": "view",
      "type": "function"
    },
    {
      "inputs": [
        {
          "internalType": "address",
          "name": "_token",
          "type": "address"
        }
      ],
      "name": "addAllowedToken",
      "outputs": [],
      "stateMutability": "nonpayable",
      "type": "function"
    },
    {
      "inputs": [
        {
          "internalType": "address",
          "name": "to",
          "type": "address"
        },
        {
          "internalType": "uint256",
          "name": "amount",
          "type": "uint256"
        }
      ],
      "name": "approveBaseToken",
      "outputs": [
        {
          "internalType": "bool",
          "name": "",
          "type": "bool"
        }
      ],
      "stateMutability": "nonpayable",
      "type": "function"
    },
    {
      "inputs": [],
      "name": "baseToken",
      "outputs": [
        {
          "internalType": "contract GRVTBaseToken",
          "name": "",
          "type": "address"
        }
      ],
      "stateMutability": "view",
      "type": "function"
    },
    {
      "inputs": [],
      "name": "bridgeHub",
      "outputs": [
        {
          "internalType": "contract IBridgehub",
          "name": "",
          "type": "address"
        }
      ],
      "stateMutability": "view",
      "type": "function"
    },
    {
      "inputs": [],
      "name": "chainID",
      "outputs": [
        {
          "internalType": "uint256",
          "name": "",
          "type": "uint256"
        }
      ],
      "stateMutability": "view",
      "type": "function"
    },
    {
      "inputs": [
        {
          "internalType": "address",
          "name": "_depositSender",
          "type": "address"
        },
        {
          "internalType": "address",
          "name": "_l1Token",
          "type": "address"
        },
        {
          "internalType": "uint256",
          "name": "_amount",
          "type": "uint256"
        },
        {
          "internalType": "bytes32",
          "name": "_l2TxHash",
          "type": "bytes32"
        },
        {
          "internalType": "uint256",
          "name": "_l2BatchNumber",
          "type": "uint256"
        },
        {
          "internalType": "uint256",
          "name": "_l2MessageIndex",
          "type": "uint256"
        },
        {
          "internalType": "uint16",
          "name": "_l2TxNumberInBatch",
          "type": "uint16"
        },
        {
          "internalType": "bytes32[]",
          "name": "_merkleProof",
          "type": "bytes32[]"
        }
      ],
      "name": "claimFailedDeposit",
      "outputs": [],
      "stateMutability": "nonpayable",
      "type": "function"
    },
    {
      "inputs": [
        {
          "internalType": "address",
          "name": "_l2Receiver",
          "type": "address"
        },
        {
          "internalType": "address",
          "name": "_l1Token",
          "type": "address"
        },
        {
          "internalType": "uint256",
          "name": "_amount",
          "type": "uint256"
        },
        {
          "internalType": "uint256",
          "name": "_deadline",
          "type": "uint256"
        },
        {
          "internalType": "uint8",
          "name": "_v",
          "type": "uint8"
        },
        {
          "internalType": "bytes32",
          "name": "_r",
          "type": "bytes32"
        },
        {
          "internalType": "bytes32",
          "name": "_s",
          "type": "bytes32"
        }
      ],
      "name": "deposit",
      "outputs": [
        {
          "internalType": "bytes32",
          "name": "txHash",
          "type": "bytes32"
        }
      ],
      "stateMutability": "nonpayable",
      "type": "function"
    },
    {
      "inputs": [],
      "name": "depositApprover",
      "outputs": [
        {
          "internalType": "address",
          "name": "",
          "type": "address"
        }
      ],
      "stateMutability": "view",
      "type": "function"
    },
    {
      "inputs": [
        {
          "internalType": "bytes32",
          "name": "l2DepositTxHash",
          "type": "bytes32"
        }
      ],
      "name": "depositHappened",
      "outputs": [
        {
          "internalType": "bytes32",
          "name": "depositDataHash",
          "type": "bytes32"
        }
      ],
      "stateMutability": "view",
      "type": "function"
    },
    {
      "inputs": [],
      "name": "getDepositApprover",
      "outputs": [
        {
          "internalType": "address",
          "name": "",
          "type": "address"
        }
      ],
      "stateMutability": "view",
      "type": "function"
    },
    {
      "inputs": [
        {
          "internalType": "uint256",
          "name": "_chainID",
          "type": "uint256"
        },
        {
          "internalType": "address",
          "name": "_bridgeHub",
          "type": "address"
        },
        {
          "internalType": "address",
          "name": "_owner",
          "type": "address"
        },
        {
          "internalType": "address",
          "name": "_depositApprover",
          "type": "address"
        },
        {
          "internalType": "address",
          "name": "_baseToken",
          "type": "address"
        }
      ],
      "name": "initialize",
      "outputs": [],
      "stateMutability": "nonpayable",
      "type": "function"
    },
    {
      "inputs": [
        {
          "internalType": "address",
          "name": "_token",
          "type": "address"
        }
      ],
      "name": "isTokenAllowed",
      "outputs": [
        {
          "internalType": "bool",
          "name": "",
          "type": "bool"
        }
      ],
      "stateMutability": "view",
      "type": "function"
    },
    {
      "inputs": [
        {
          "internalType": "address",
          "name": "_l2Receiver",
          "type": "address"
        },
        {
          "internalType": "uint256",
          "name": "_amount",
          "type": "uint256"
        }
      ],
      "name": "mintBaseTokenL2",
      "outputs": [],
      "stateMutability": "nonpayable",
      "type": "function"
    },
    {
      "inputs": [],
      "name": "owner",
      "outputs": [
        {
          "internalType": "address",
          "name": "",
          "type": "address"
        }
      ],
      "stateMutability": "view",
      "type": "function"
    },
    {
      "inputs": [
        {
          "internalType": "address",
          "name": "_token",
          "type": "address"
        }
      ],
      "name": "removeAllowedToken",
      "outputs": [],
      "stateMutability": "nonpayable",
      "type": "function"
    },
    {
      "inputs": [],
      "name": "renounceOwnership",
      "outputs": [],
      "stateMutability": "nonpayable",
      "type": "function"
    },
    {
      "inputs": [
        {
          "internalType": "address",
          "name": "_bridgeHub",
          "type": "address"
        }
      ],
      "name": "setBridgeHub",
      "outputs": [],
      "stateMutability": "nonpayable",
      "type": "function"
    },
    {
      "inputs": [
        {
          "internalType": "address",
          "name": "_depositApprover",
          "type": "address"
        }
      ],
      "name": "setDepositApprover",
      "outputs": [],
      "stateMutability": "nonpayable",
      "type": "function"
    },
    {
      "inputs": [
        {
          "internalType": "address",
          "name": "newOwner",
          "type": "address"
        }
      ],
      "name": "transferOwnership",
      "outputs": [],
      "stateMutability": "nonpayable",
      "type": "function"
    }
  ],
  "bytecode": "0x60a06040527fc2f8787176b8ac6bf7215b4adcc1e069bf4ab82d9ab1df05a57a91d425935b6e6040518060400160405280600d81526020017f475256542045786368616e676500000000000000000000000000000000000000815250805190602001206040518060400160405280600181526020017f30000000000000000000000000000000000000000000000000000000000000008152508051906020012046604051602001620000b594939291906200011b565b60405160208183030381529060405280519060200120608090815250348015620000de57600080fd5b5062000168565b6000819050919050565b620000fa81620000e5565b82525050565b6000819050919050565b620001158162000100565b82525050565b6000608082019050620001326000830187620000ef565b620001416020830186620000ef565b620001506040830185620000ef565b6200015f60608301846200010a565b95945050505050565b6080516139e16200018460003960006119bd01526139e16000f3fe608060405234801561001057600080fd5b50600436106101375760003560e01c8063982f3992116100b8578063d0200f5a1161007c578063d0200f5a14610302578063e187cd841461031e578063f2fde38b1461033c578063f68834d514610358578063f9eaee0d14610376578063fbcc4abf146103a657610137565b8063982f39921461026e578063984c5acf1461028c578063adc879e9146102a8578063c105cb2f146102c6578063c55dae63146102e457610137565b80637a4472b4116100ff5780637a4472b4146101ca5780637d7dd076146101e65780638d66e8e4146102165780638da5cb5b1461023457806390469a9d1461025257610137565b806323ab8e3e1461013c5780632775ddad146101585780633641e083146101885780634178617f146101a4578063715018a6146101c0575b600080fd5b6101566004803603810190610151919061215c565b6103d6565b005b610172600480360381019061016d91906121bf565b610465565b60405161017f91906121fb565b60405180910390f35b6101a2600480360381019061019d919061224c565b61047d565b005b6101be60048036038101906101b9919061215c565b610741565b005b6101c86107db565b005b6101e460048036038101906101df919061215c565b6107ef565b005b61020060048036038101906101fb9190612300565b61087e565b60405161020d91906121fb565b60405180910390f35b61021e6108ad565b60405161022b9190612401565b60405180910390f35b61023c6108d3565b604051610249919061242b565b60405180910390f35b61026c6004803603810190610267919061215c565b6108fd565b005b610276610997565b604051610283919061242b565b60405180910390f35b6102a660048036038101906102a19190612446565b6109bd565b005b6102b0610c26565b6040516102bd9190612495565b60405180910390f35b6102ce610c2c565b6040516102db919061242b565b60405180910390f35b6102ec610c56565b6040516102f991906124d1565b60405180910390f35b61031c6004803603810190610317919061258b565b610c7c565b005b610326611023565b6040516103339190612495565b60405180910390f35b6103566004803603810190610351919061215c565b61102a565b005b6103606110ad565b60405161036d9190612495565b60405180910390f35b610390600480360381019061038b919061215c565b6110b4565b60405161039d919061267c565b60405180910390f35b6103c060048036038101906103bb9190612446565b61110a565b6040516103cd919061267c565b60405180910390f35b6103de6111bc565b80609860006101000a81548173ffffffffffffffffffffffffffffffffffffffff021916908373ffffffffffffffffffffffffffffffffffffffff1602179055508073ffffffffffffffffffffffffffffffffffffffff167fd1a21106f7fd29091b6c9c4f0a0bf9ed7d0267e56ad5852fa2c2bffac1ebaa4a60405160405180910390a250565b609d6020528060005260406000206000915090505481565b60008060019054906101000a900460ff161590508080156104ae5750600160008054906101000a900460ff1660ff16105b806104db57506104bd3061123a565b1580156104da5750600160008054906101000a900460ff1660ff16145b5b61051a576040517f08c379a00000000000000000000000000000000000000000000000000000000081526004016105119061271a565b60405180910390fd5b60016000806101000a81548160ff021916908360ff1602179055508015610557576001600060016101000a81548160ff0219169083151502179055505b8560978190555084609860006101000a81548173ffffffffffffffffffffffffffffffffffffffff021916908373ffffffffffffffffffffffffffffffffffffffff16021790555082609960006101000a81548173ffffffffffffffffffffffffffffffffffffffff021916908373ffffffffffffffffffffffffffffffffffffffff16021790555081609a60006101000a81548173ffffffffffffffffffffffffffffffffffffffff021916908373ffffffffffffffffffffffffffffffffffffffff160217905550600073ffffffffffffffffffffffffffffffffffffffff168473ffffffffffffffffffffffffffffffffffffffff1603610690576040517f08c379a000000000000000000000000000000000000000000000000000000000815260040161068790612786565b60405180910390fd5b6106998461125d565b6106a1611323565b7f8116ad789877047f333ab33efd05e6dc66f5b1502332b352228bc3b255f1e53f86868686866040516106d89594939291906127a6565b60405180910390a180156107395760008060016101000a81548160ff0219169083151502179055507f7f26b83ff96e1f2b6a682f133852f6798a09c465da95921460cefb384740249860016040516107309190612834565b60405180910390a15b505050505050565b6107496111bc565b6001609b60008373ffffffffffffffffffffffffffffffffffffffff1673ffffffffffffffffffffffffffffffffffffffff16815260200190815260200160002060006101000a81548160ff0219169083151502179055507fbeceb48aeaa805aeae57be163cca6249077a18734e408a85aa74e875c4373809816040516107d0919061242b565b60405180910390a150565b6107e36111bc565b6107ed600061125d565b565b6107f76111bc565b80609960006101000a81548173ffffffffffffffffffffffffffffffffffffffff021916908373ffffffffffffffffffffffffffffffffffffffff1602179055508073ffffffffffffffffffffffffffffffffffffffff167fb7a0addab191b437a983ba685bab5e94da357810e025d804e46a77b605845b4360405160405180910390a250565b600061088861137c565b61089833898989898989896113cb565b90506108a26117d6565b979650505050505050565b609860009054906101000a900473ffffffffffffffffffffffffffffffffffffffff1681565b6000603360009054906101000a900473ffffffffffffffffffffffffffffffffffffffff16905090565b6109056111bc565b6000609b60008373ffffffffffffffffffffffffffffffffffffffff1673ffffffffffffffffffffffffffffffffffffffff16815260200190815260200160002060006101000a81548160ff0219169083151502179055507feaa9136602e3b70a4e689b5b6f55bda25ca62b917d839c0ff87f5902387f77b98160405161098c919061242b565b60405180910390a150565b609960009054906101000a900473ffffffffffffffffffffffffffffffffffffffff1681565b6109c56111bc565b60006109d36207a1206117e0565b9050600082826109e3919061287e565b9050609a60009054906101000a900473ffffffffffffffffffffffffffffffffffffffff1673ffffffffffffffffffffffffffffffffffffffff166340c10f1930836040518363ffffffff1660e01b8152600401610a429291906128b2565b600060405180830381600087803b158015610a5c57600080fd5b505af1158015610a70573d6000803e3d6000fd5b50505050609860009054906101000a900473ffffffffffffffffffffffffffffffffffffffff1673ffffffffffffffffffffffffffffffffffffffff1663d52471c160405180610120016040528060975481526020018481526020018773ffffffffffffffffffffffffffffffffffffffff168152602001868152602001600067ffffffffffffffff811115610b0957610b086128db565b5b6040519080825280601f01601f191660200182016040528015610b3b5781602001600182028036833780820191505090505b5081526020016207a12081526020016103208152602001600067ffffffffffffffff811115610b6d57610b6c6128db565b5b604051908082528060200260200182016040528015610ba057816020015b6060815260200190600190039081610b8b5790505b5081526020018773ffffffffffffffffffffffffffffffffffffffff168152506040518263ffffffff1660e01b8152600401610bdc9190612b46565b6020604051808303816000875af1158015610bfb573d6000803e3d6000fd5b505050506040513d601f19601f82011682018060405250810190610c1f9190612b7d565b5050505050565b60975481565b6000609960009054906101000a900473ffffffffffffffffffffffffffffffffffffffff16905090565b609a60009054906101000a900473ffffffffffffffffffffffffffffffffffffffff1681565b610c8461137c565b6000609860009054906101000a900473ffffffffffffffffffffffffffffffffffffffff1673ffffffffffffffffffffffffffffffffffffffff1663b292f5f160975489898989898960006040518963ffffffff1660e01b8152600401610cf2989796959493929190612cab565b602060405180830381865afa158015610d0f573d6000803e3d6000fd5b505050506040513d601f19601f82011682018060405250810190610d339190612d4f565b905080610d75576040517f08c379a0000000000000000000000000000000000000000000000000000000008152600401610d6c90612dc8565b60405180910390fd5b5060008711610db9576040517f08c379a0000000000000000000000000000000000000000000000000000000008152600401610db090612e5a565b60405180910390fd5b6000609d600088815260200190815260200160002054905060008a8a8a604051602001610de893929190612e7a565b604051602081830303815290604052805190602001209050808214610e42576040517f08c379a0000000000000000000000000000000000000000000000000000000008152600401610e3990612efd565b60405180910390fd5b609d6000898152602001908152602001600020600090556000609860009054906101000a900473ffffffffffffffffffffffffffffffffffffffff1673ffffffffffffffffffffffffffffffffffffffff1663387207786040518163ffffffff1660e01b8152600401602060405180830381865afa158015610ec8573d6000803e3d6000fd5b505050506040513d601f19601f82011682018060405250810190610eec9190612f5b565b905060008173ffffffffffffffffffffffffffffffffffffffff1663c0991525609754308f8f8f8f8f8f8f8f6040518b63ffffffff1660e01b8152600401610f3d9a99989796959493929190612f88565b600060405180830381600087803b158015610f5757600080fd5b505af1925050508015610f68575060015b610f755760009050610f7a565b600190505b610fa58d8c8e73ffffffffffffffffffffffffffffffffffffffff1661188f9092919063ffffffff16565b8b73ffffffffffffffffffffffffffffffffffffffff168d73ffffffffffffffffffffffffffffffffffffffff167fc2dca522a7898a1952e1dadae4d23bfbb84b4499545d23678281894399905c8e8d8460405161100492919061301e565b60405180910390a3505050506110186117d6565b505050505050505050565b62124f8081565b6110326111bc565b600073ffffffffffffffffffffffffffffffffffffffff168173ffffffffffffffffffffffffffffffffffffffff16036110a1576040517f08c379a0000000000000000000000000000000000000000000000000000000008152600401611098906130b9565b60405180910390fd5b6110aa8161125d565b50565b6207a12081565b6000609b60008373ffffffffffffffffffffffffffffffffffffffff1673ffffffffffffffffffffffffffffffffffffffff16815260200190815260200160002060009054906101000a900460ff169050919050565b60006111146111bc565b609a60009054906101000a900473ffffffffffffffffffffffffffffffffffffffff1673ffffffffffffffffffffffffffffffffffffffff1663095ea7b384846040518363ffffffff1660e01b81526004016111719291906128b2565b6020604051808303816000875af1158015611190573d6000803e3d6000fd5b505050506040513d601f19601f820116820180604052508101906111b49190612d4f565b905092915050565b6111c4611915565b73ffffffffffffffffffffffffffffffffffffffff166111e26108d3565b73ffffffffffffffffffffffffffffffffffffffff1614611238576040517f08c379a000000000000000000000000000000000000000000000000000000000815260040161122f90613125565b60405180910390fd5b565b6000808273ffffffffffffffffffffffffffffffffffffffff163b119050919050565b6000603360009054906101000a900473ffffffffffffffffffffffffffffffffffffffff16905081603360006101000a81548173ffffffffffffffffffffffffffffffffffffffff021916908373ffffffffffffffffffffffffffffffffffffffff1602179055508173ffffffffffffffffffffffffffffffffffffffff168173ffffffffffffffffffffffffffffffffffffffff167f8be0079c531659141344cd1fd0a4f28419497f9722a3daafe3b4186f6b6457e060405160405180910390a35050565b600060019054906101000a900460ff16611372576040517f08c379a0000000000000000000000000000000000000000000000000000000008152600401611369906131b7565b60405180910390fd5b61137a61191d565b565b6002606554036113c1576040517f08c379a00000000000000000000000000000000000000000000000000000000081526004016113b890613223565b60405180910390fd5b6002606581905550565b6000609b60008873ffffffffffffffffffffffffffffffffffffffff1673ffffffffffffffffffffffffffffffffffffffff16815260200190815260200160002060009054906101000a900460ff16611459576040517f08c379a00000000000000000000000000000000000000000000000000000000081526004016114509061328f565b60405180910390fd5b6114698989898989898989611976565b6000609860009054906101000a900473ffffffffffffffffffffffffffffffffffffffff1673ffffffffffffffffffffffffffffffffffffffff1663387207786040518163ffffffff1660e01b8152600401602060405180830381865afa1580156114d8573d6000803e3d6000fd5b505050506040513d601f19601f820116820180604052508101906114fc9190612f5b565b905061152b8a30898b73ffffffffffffffffffffffffffffffffffffffff16611be2909392919063ffffffff16565b61155681888a73ffffffffffffffffffffffffffffffffffffffff16611c6b9092919063ffffffff16565b600061156462124f806117e0565b9050609a60009054906101000a900473ffffffffffffffffffffffffffffffffffffffff1673ffffffffffffffffffffffffffffffffffffffff166340c10f1930836040518363ffffffff1660e01b81526004016115c39291906128b2565b600060405180830381600087803b1580156115dd57600080fd5b505af11580156115f1573d6000803e3d6000fd5b50505050609860009054906101000a900473ffffffffffffffffffffffffffffffffffffffff1673ffffffffffffffffffffffffffffffffffffffff166324fd57fb60405180610120016040528060975481526020018481526020016000815260200162124f80815260200161032081526020018e73ffffffffffffffffffffffffffffffffffffffff1681526020018573ffffffffffffffffffffffffffffffffffffffff168152602001600081526020018c8c8f6040516020016116b9939291906132af565b6040516020818303038152906040528152506040518263ffffffff1660e01b81526004016116e791906133ab565b6020604051808303816000875af1158015611706573d6000803e3d6000fd5b505050506040513d601f19601f8201168201806040525081019061172a9190612b7d565b925060008b8a8a60405160200161174393929190612e7a565b60405160208183030381529060405280519060200120905080609d6000868152602001908152602001600020819055508b73ffffffffffffffffffffffffffffffffffffffff1684827fef26a754130bcfc939f007da97d69fcb41aefeba6f5e1711cb6e425677a4e0058e8e8e6040516117bf93929190612e7a565b60405180910390a450505098975050505050505050565b6001606581905550565b6000609860009054906101000a900473ffffffffffffffffffffffffffffffffffffffff1673ffffffffffffffffffffffffffffffffffffffff1663716232746097543a856103206040518563ffffffff1660e01b815260040161184794939291906133cd565b602060405180830381865afa158015611864573d6000803e3d6000fd5b505050506040513d601f19601f820116820180604052508101906118889190613427565b9050919050565b6119108363a9059cbb60e01b84846040516024016118ae9291906128b2565b604051602081830303815290604052907bffffffffffffffffffffffffffffffffffffffffffffffffffffffff19166020820180517bffffffffffffffffffffffffffffffffffffffffffffffffffffffff8381831617835250505050611d7d565b505050565b600033905090565b600060019054906101000a900460ff1661196c576040517f08c379a0000000000000000000000000000000000000000000000000000000008152600401611963906131b7565b60405180910390fd5b6001606581905550565b834211156119b9576040517f08c379a00000000000000000000000000000000000000000000000000000000081526004016119b0906134a0565b60405180910390fd5b60007f00000000000000000000000000000000000000000000000000000000000000006040516020016119ec9190613538565b6040516020818303038152906040527f763fc6c32b1e37d505c046de93f50d1de8983090eb80880eeb8781e40e7c1e9e8a8a8a8a8a604051602001611a369695949392919061355e565b60405160208183030381529060405280519060200120604051602001611a5d9291906135fb565b604051602081830303815290604052805190602001209050609c600082815260200190815260200160002060009054906101000a900460ff1615611ad6576040517f08c379a0000000000000000000000000000000000000000000000000000000008152600401611acd90613695565b60405180910390fd5b600080611ae583878787611e45565b9150915060006004811115611afd57611afc612c34565b5b816004811115611b1057611b0f612c34565b5b148015611b6a5750609960009054906101000a900473ffffffffffffffffffffffffffffffffffffffff1673ffffffffffffffffffffffffffffffffffffffff168273ffffffffffffffffffffffffffffffffffffffff16145b611ba9576040517f08c379a0000000000000000000000000000000000000000000000000000000008152600401611ba090613701565b60405180910390fd5b6001609c600085815260200190815260200160002060006101000a81548160ff0219169083151502179055505050505050505050505050565b611c65846323b872dd60e01b858585604051602401611c0393929190612e7a565b604051602081830303815290604052907bffffffffffffffffffffffffffffffffffffffffffffffffffffffff19166020820180517bffffffffffffffffffffffffffffffffffffffffffffffffffffffff8381831617835250505050611d7d565b50505050565b60008373ffffffffffffffffffffffffffffffffffffffff1663dd62ed3e30856040518363ffffffff1660e01b8152600401611ca8929190613721565b602060405180830381865afa158015611cc5573d6000803e3d6000fd5b505050506040513d601f19601f82011682018060405250810190611ce99190613427565b9050611d778463095ea7b360e01b858585611d04919061287e565b604051602401611d159291906128b2565b604051602081830303815290604052907bffffffffffffffffffffffffffffffffffffffffffffffffffffffff19166020820180517bffffffffffffffffffffffffffffffffffffffffffffffffffffffff8381831617835250505050611d7d565b50505050565b6000611ddf826040518060400160405280602081526020017f5361666545524332303a206c6f772d6c6576656c2063616c6c206661696c65648152508573ffffffffffffffffffffffffffffffffffffffff16611f279092919063ffffffff16565b9050600081511480611e01575080806020019051810190611e009190612d4f565b5b611e40576040517f08c379a0000000000000000000000000000000000000000000000000000000008152600401611e37906137bc565b60405180910390fd5b505050565b6000807f7fffffffffffffffffffffffffffffff5d576e7357a4501ddfe92f46681b20a08360001c1115611e80576000600391509150611f1e565b600060018787878760405160008152602001604052604051611ea594939291906137eb565b6020604051602081039080840390855afa158015611ec7573d6000803e3d6000fd5b505050602060405103519050600073ffffffffffffffffffffffffffffffffffffffff168173ffffffffffffffffffffffffffffffffffffffff1603611f1557600060019250925050611f1e565b80600092509250505b94509492505050565b6060611f368484600085611f3f565b90509392505050565b606082471015611f84576040517f08c379a0000000000000000000000000000000000000000000000000000000008152600401611f7b906138a2565b60405180910390fd5b6000808673ffffffffffffffffffffffffffffffffffffffff168587604051611fad91906138c2565b60006040518083038185875af1925050503d8060008114611fea576040519150601f19603f3d011682016040523d82523d6000602084013e611fef565b606091505b50915091506120008783838761200c565b92505050949350505050565b6060831561206e5760008351036120665761202685612081565b612065576040517f08c379a000000000000000000000000000000000000000000000000000000000815260040161205c90613925565b60405180910390fd5b5b829050612079565b61207883836120a4565b5b949350505050565b6000808273ffffffffffffffffffffffffffffffffffffffff163b119050919050565b6000825111156120b75781518083602001fd5b806040517f08c379a00000000000000000000000000000000000000000000000000000000081526004016120eb9190613989565b60405180910390fd5b600080fd5b600080fd5b600073ffffffffffffffffffffffffffffffffffffffff82169050919050565b6000612129826120fe565b9050919050565b6121398161211e565b811461214457600080fd5b50565b60008135905061215681612130565b92915050565b600060208284031215612172576121716120f4565b5b600061218084828501612147565b91505092915050565b6000819050919050565b61219c81612189565b81146121a757600080fd5b50565b6000813590506121b981612193565b92915050565b6000602082840312156121d5576121d46120f4565b5b60006121e3848285016121aa565b91505092915050565b6121f581612189565b82525050565b600060208201905061221060008301846121ec565b92915050565b6000819050919050565b61222981612216565b811461223457600080fd5b50565b60008135905061224681612220565b92915050565b600080600080600060a08688031215612268576122676120f4565b5b600061227688828901612237565b955050602061228788828901612147565b945050604061229888828901612147565b93505060606122a988828901612147565b92505060806122ba88828901612147565b9150509295509295909350565b600060ff82169050919050565b6122dd816122c7565b81146122e857600080fd5b50565b6000813590506122fa816122d4565b92915050565b600080600080600080600060e0888a03121561231f5761231e6120f4565b5b600061232d8a828b01612147565b975050602061233e8a828b01612147565b965050604061234f8a828b01612237565b95505060606123608a828b01612237565b94505060806123718a828b016122eb565b93505060a06123828a828b016121aa565b92505060c06123938a828b016121aa565b91505092959891949750929550565b6000819050919050565b60006123c76123c26123bd846120fe565b6123a2565b6120fe565b9050919050565b60006123d9826123ac565b9050919050565b60006123eb826123ce565b9050919050565b6123fb816123e0565b82525050565b600060208201905061241660008301846123f2565b92915050565b6124258161211e565b82525050565b6000602082019050612440600083018461241c565b92915050565b6000806040838503121561245d5761245c6120f4565b5b600061246b85828601612147565b925050602061247c85828601612237565b9150509250929050565b61248f81612216565b82525050565b60006020820190506124aa6000830184612486565b92915050565b60006124bb826123ce565b9050919050565b6124cb816124b0565b82525050565b60006020820190506124e660008301846124c2565b92915050565b600061ffff82169050919050565b612503816124ec565b811461250e57600080fd5b50565b600081359050612520816124fa565b92915050565b600080fd5b600080fd5b600080fd5b60008083601f84011261254b5761254a612526565b5b8235905067ffffffffffffffff8111156125685761256761252b565b5b60208301915083602082028301111561258457612583612530565b5b9250929050565b60008060008060008060008060006101008a8c0312156125ae576125ad6120f4565b5b60006125bc8c828d01612147565b99505060206125cd8c828d01612147565b98505060406125de8c828d01612237565b97505060606125ef8c828d016121aa565b96505060806126008c828d01612237565b95505060a06126118c828d01612237565b94505060c06126228c828d01612511565b93505060e08a013567ffffffffffffffff811115612643576126426120f9565b5b61264f8c828d01612535565b92509250509295985092959850929598565b60008115159050919050565b61267681612661565b82525050565b6000602082019050612691600083018461266d565b92915050565b600082825260208201905092915050565b7f496e697469616c697a61626c653a20636f6e747261637420697320616c72656160008201527f647920696e697469616c697a6564000000000000000000000000000000000000602082015250565b6000612704602e83612697565b915061270f826126a8565b604082019050919050565b60006020820190508181036000830152612733816126f7565b9050919050565b7f536842206f776e65722030000000000000000000000000000000000000000000600082015250565b6000612770600b83612697565b915061277b8261273a565b602082019050919050565b6000602082019050818103600083015261279f81612763565b9050919050565b600060a0820190506127bb6000830188612486565b6127c8602083018761241c565b6127d5604083018661241c565b6127e2606083018561241c565b6127ef608083018461241c565b9695505050505050565b6000819050919050565b600061281e612819612814846127f9565b6123a2565b6122c7565b9050919050565b61282e81612803565b82525050565b60006020820190506128496000830184612825565b92915050565b7f4e487b7100000000000000000000000000000000000000000000000000000000600052601160045260246000fd5b600061288982612216565b915061289483612216565b92508282019050808211156128ac576128ab61284f565b5b92915050565b60006040820190506128c7600083018561241c565b6128d46020830184612486565b9392505050565b7f4e487b7100000000000000000000000000000000000000000000000000000000600052604160045260246000fd5b61291381612216565b82525050565b6129228161211e565b82525050565b600081519050919050565b600082825260208201905092915050565b60005b83811015612962578082015181840152602081019050612947565b60008484015250505050565b6000601f19601f8301169050919050565b600061298a82612928565b6129948185612933565b93506129a4818560208601612944565b6129ad8161296e565b840191505092915050565b600081519050919050565b600082825260208201905092915050565b6000819050602082019050919050565b60006129f0838361297f565b905092915050565b6000602082019050919050565b6000612a10826129b8565b612a1a81856129c3565b935083602082028501612a2c856129d4565b8060005b85811015612a685784840389528151612a4985826129e4565b9450612a54836129f8565b925060208a01995050600181019050612a30565b50829750879550505050505092915050565b600061012083016000830151612a93600086018261290a565b506020830151612aa6602086018261290a565b506040830151612ab96040860182612919565b506060830151612acc606086018261290a565b5060808301518482036080860152612ae4828261297f565b91505060a0830151612af960a086018261290a565b5060c0830151612b0c60c086018261290a565b5060e083015184820360e0860152612b248282612a05565b915050610100830151612b3b610100860182612919565b508091505092915050565b60006020820190508181036000830152612b608184612a7a565b905092915050565b600081519050612b7781612193565b92915050565b600060208284031215612b9357612b926120f4565b5b6000612ba184828501612b68565b91505092915050565b612bb3816124ec565b82525050565b600082825260208201905092915050565b600080fd5b82818337505050565b6000612be48385612bb9565b93507f07ffffffffffffffffffffffffffffffffffffffffffffffffffffffffffffff831115612c1757612c16612bca565b5b602083029250612c28838584612bcf565b82840190509392505050565b7f4e487b7100000000000000000000000000000000000000000000000000000000600052602160045260246000fd5b60028110612c7457612c73612c34565b5b50565b6000819050612c8582612c63565b919050565b6000612c9582612c77565b9050919050565b612ca581612c8a565b82525050565b600060e082019050612cc0600083018b612486565b612ccd602083018a6121ec565b612cda6040830189612486565b612ce76060830188612486565b612cf46080830187612baa565b81810360a0830152612d07818587612bd8565b9050612d1660c0830184612c9c565b9998505050505050505050565b612d2c81612661565b8114612d3757600080fd5b50565b600081519050612d4981612d23565b92915050565b600060208284031215612d6557612d646120f4565b5b6000612d7384828501612d3a565b91505092915050565b7f6772767442503a20696e76616c69642070726f6f660000000000000000000000600082015250565b6000612db2601583612697565b9150612dbd82612d7c565b602082019050919050565b60006020820190508181036000830152612de181612da5565b9050919050565b7f6772767442503a20616d6f756e74206d757374206265206c617267657220746860008201527f616e203000000000000000000000000000000000000000000000000000000000602082015250565b6000612e44602483612697565b9150612e4f82612de8565b604082019050919050565b60006020820190508181036000830152612e7381612e37565b9050919050565b6000606082019050612e8f600083018661241c565b612e9c602083018561241c565b612ea96040830184612486565b949350505050565b7f6772767442503a206465706f73697420646964206e6f742068617070656e0000600082015250565b6000612ee7601e83612697565b9150612ef282612eb1565b602082019050919050565b60006020820190508181036000830152612f1681612eda565b9050919050565b6000612f288261211e565b9050919050565b612f3881612f1d565b8114612f4357600080fd5b50565b600081519050612f5581612f2f565b92915050565b600060208284031215612f7157612f706120f4565b5b6000612f7f84828501612f46565b91505092915050565b600061012082019050612f9e600083018d612486565b612fab602083018c61241c565b612fb8604083018b61241c565b612fc5606083018a612486565b612fd260808301896121ec565b612fdf60a0830188612486565b612fec60c0830187612486565b612ff960e0830186612baa565b81810361010083015261300d818486612bd8565b90509b9a5050505050505050505050565b60006040820190506130336000830185612486565b613040602083018461266d565b9392505050565b7f4f776e61626c653a206e6577206f776e657220697320746865207a65726f206160008201527f6464726573730000000000000000000000000000000000000000000000000000602082015250565b60006130a3602683612697565b91506130ae82613047565b604082019050919050565b600060208201905081810360008301526130d281613096565b9050919050565b7f4f776e61626c653a2063616c6c6572206973206e6f7420746865206f776e6572600082015250565b600061310f602083612697565b915061311a826130d9565b602082019050919050565b6000602082019050818103600083015261313e81613102565b9050919050565b7f496e697469616c697a61626c653a20636f6e7472616374206973206e6f74206960008201527f6e697469616c697a696e67000000000000000000000000000000000000000000602082015250565b60006131a1602b83612697565b91506131ac82613145565b604082019050919050565b600060208201905081810360008301526131d081613194565b9050919050565b7f5265656e7472616e637947756172643a207265656e7472616e742063616c6c00600082015250565b600061320d601f83612697565b9150613218826131d7565b602082019050919050565b6000602082019050818103600083015261323c81613200565b9050919050565b7f6772767442503a204c3120746f6b656e206e6f7420616c6c6f77656400000000600082015250565b6000613279601c83612697565b915061328482613243565b602082019050919050565b600060208201905081810360008301526132a88161326c565b9050919050565b60006060820190506132c4600083018661241c565b6132d16020830185612486565b6132de604083018461241c565b949350505050565b6000610120830160008301516132ff600086018261290a565b506020830151613312602086018261290a565b506040830151613325604086018261290a565b506060830151613338606086018261290a565b50608083015161334b608086018261290a565b5060a083015161335e60a0860182612919565b5060c083015161337160c0860182612919565b5060e083015161338460e086018261290a565b5061010083015184820361010086015261339e828261297f565b9150508091505092915050565b600060208201905081810360008301526133c581846132e6565b905092915050565b60006080820190506133e26000830187612486565b6133ef6020830186612486565b6133fc6040830185612486565b6134096060830184612486565b95945050505050565b60008151905061342181612220565b92915050565b60006020828403121561343d5761343c6120f4565b5b600061344b84828501613412565b91505092915050565b7f6772767442503a206578706972656420646561646c696e650000000000000000600082015250565b600061348a601883612697565b915061349582613454565b602082019050919050565b600060208201905081810360008301526134b98161347d565b9050919050565b600081905092915050565b7f1901000000000000000000000000000000000000000000000000000000000000600082015250565b60006135016002836134c0565b915061350c826134cb565b600282019050919050565b6000819050919050565b61353261352d82612189565b613517565b82525050565b6000613543826134f4565b915061354f8284613521565b60208201915081905092915050565b600060c08201905061357360008301896121ec565b613580602083018861241c565b61358d604083018761241c565b61359a606083018661241c565b6135a76080830185612486565b6135b460a0830184612486565b979650505050505050565b600081905092915050565b60006135d582612928565b6135df81856135bf565b93506135ef818560208601612944565b80840191505092915050565b600061360782856135ca565b91506136138284613521565b6020820191508190509392505050565b7f6772767442503a206465706f73697420617070726f76616c20616c726561647960008201527f2075736564000000000000000000000000000000000000000000000000000000602082015250565b600061367f602583612697565b915061368a82613623565b604082019050919050565b600060208201905081810360008301526136ae81613672565b9050919050565b7f6772767442503a20696e76616c6964207369676e617475726500000000000000600082015250565b60006136eb601983612697565b91506136f6826136b5565b602082019050919050565b6000602082019050818103600083015261371a816136de565b9050919050565b6000604082019050613736600083018561241c565b613743602083018461241c565b9392505050565b7f5361666545524332303a204552433230206f7065726174696f6e20646964206e60008201527f6f74207375636365656400000000000000000000000000000000000000000000602082015250565b60006137a6602a83612697565b91506137b18261374a565b604082019050919050565b600060208201905081810360008301526137d581613799565b9050919050565b6137e5816122c7565b82525050565b600060808201905061380060008301876121ec565b61380d60208301866137dc565b61381a60408301856121ec565b61382760608301846121ec565b95945050505050565b7f416464726573733a20696e73756666696369656e742062616c616e636520666f60008201527f722063616c6c0000000000000000000000000000000000000000000000000000602082015250565b600061388c602683612697565b915061389782613830565b604082019050919050565b600060208201905081810360008301526138bb8161387f565b9050919050565b60006138ce82846135ca565b915081905092915050565b7f416464726573733a2063616c6c20746f206e6f6e2d636f6e7472616374000000600082015250565b600061390f601d83612697565b915061391a826138d9565b602082019050919050565b6000602082019050818103600083015261393e81613902565b9050919050565b600081519050919050565b600061395b82613945565b6139658185612697565b9350613975818560208601612944565b61397e8161296e565b840191505092915050565b600060208201905081810360008301526139a38184613950565b90509291505056fea2646970667358221220900d579db893033ae5067dfff31311bbbf54c00a1d5cb0cbad8d4a639334a1c364736f6c63430008180033",
  "linkReferences": {},
  "deployedLinkReferences": {}
}